{
  "contractName": "Marketplace",
  "abi": [
    {
      "inputs": [
        {
          "internalType": "address",
          "name": "sender",
          "type": "address"
        },
        {
          "internalType": "address",
          "name": "_agent",
          "type": "address"
        }
      ],
      "stateMutability": "nonpayable",
      "type": "constructor"
    },
    {
      "anonymous": false,
      "inputs": [
        {
          "indexed": false,
          "internalType": "uint256",
          "name": "productId",
          "type": "uint256"
        },
        {
          "indexed": false,
          "internalType": "address payable",
          "name": "buyer",
          "type": "address"
        }
      ],
      "name": "bidmade",
      "type": "event"
    },
    {
      "anonymous": false,
      "inputs": [
        {
          "indexed": false,
          "internalType": "uint256",
          "name": "productId",
          "type": "uint256"
        },
        {
          "indexed": false,
          "internalType": "address",
          "name": "buyer",
          "type": "address"
        },
        {
          "indexed": false,
          "internalType": "address",
          "name": "seller",
          "type": "address"
        }
      ],
      "name": "delivered",
      "type": "event"
    },
    {
      "anonymous": false,
      "inputs": [
        {
          "indexed": false,
          "internalType": "uint256",
          "name": "productId",
          "type": "uint256"
        },
        {
          "indexed": false,
          "internalType": "uint256",
          "name": "finalprice",
          "type": "uint256"
        },
        {
          "indexed": false,
          "internalType": "address",
          "name": "buyer",
          "type": "address"
        }
      ],
      "name": "outfordelivery",
      "type": "event"
    },
    {
      "anonymous": false,
      "inputs": [
        {
          "indexed": false,
          "internalType": "uint256",
          "name": "productId",
          "type": "uint256"
        },
        {
          "indexed": false,
          "internalType": "uint256",
          "name": "price",
          "type": "uint256"
        },
        {
          "indexed": false,
          "internalType": "string",
          "name": "description",
          "type": "string"
        },
        {
          "indexed": false,
          "internalType": "address payable",
          "name": "seller",
          "type": "address"
        }
      ],
      "name": "productregistered",
      "type": "event"
    },
    {
      "stateMutability": "payable",
      "type": "fallback",
      "payable": true
    },
    {
      "inputs": [],
      "name": "agent",
      "outputs": [
        {
          "internalType": "address",
          "name": "",
          "type": "address"
        }
      ],
      "stateMutability": "view",
      "type": "function",
      "constant": true
    },
    {
      "inputs": [],
      "name": "count",
      "outputs": [
        {
          "internalType": "uint256",
          "name": "",
          "type": "uint256"
        }
      ],
      "stateMutability": "view",
      "type": "function",
      "constant": true
    },
    {
      "inputs": [],
      "name": "manager",
      "outputs": [
        {
          "internalType": "address payable",
          "name": "",
          "type": "address"
        }
      ],
      "stateMutability": "view",
      "type": "function",
      "constant": true
    },
    {
      "inputs": [
        {
          "internalType": "uint256",
          "name": "",
          "type": "uint256"
        }
      ],
      "name": "registered",
      "outputs": [
        {
          "internalType": "uint256",
          "name": "price",
          "type": "uint256"
        },
        {
          "internalType": "string",
          "name": "description",
          "type": "string"
        },
        {
          "internalType": "address payable",
          "name": "seller",
          "type": "address"
        },
        {
          "internalType": "address payable",
          "name": "highestbidder",
          "type": "address"
        },
        {
          "internalType": "int256",
          "name": "startdate",
          "type": "int256"
        },
        {
          "internalType": "uint256",
          "name": "productId",
          "type": "uint256"
        },
        {
          "internalType": "int256",
          "name": "enddate",
          "type": "int256"
        },
        {
          "internalType": "bool",
          "name": "bidover",
          "type": "bool"
        },
        {
          "internalType": "bool",
          "name": "delivered",
          "type": "bool"
        },
        {
          "internalType": "bool",
          "name": "sold",
          "type": "bool"
        }
      ],
      "stateMutability": "view",
      "type": "function",
      "constant": true
    },
    {
      "inputs": [
        {
          "internalType": "uint256",
          "name": "",
          "type": "uint256"
        },
        {
          "internalType": "address",
          "name": "",
          "type": "address"
        }
      ],
      "name": "totalbidders",
      "outputs": [
        {
          "internalType": "uint256",
          "name": "",
          "type": "uint256"
        }
      ],
      "stateMutability": "view",
      "type": "function",
      "constant": true
    },
    {
      "inputs": [],
      "name": "destroy",
      "outputs": [],
      "stateMutability": "nonpayable",
      "type": "function"
    },
    {
      "inputs": [
        {
          "internalType": "uint256",
          "name": "_price",
          "type": "uint256"
        },
        {
          "internalType": "string",
          "name": "_description",
          "type": "string"
        }
      ],
      "name": "registerproduct",
      "outputs": [],
      "stateMutability": "nonpayable",
      "type": "function"
    },
    {
      "inputs": [
        {
          "internalType": "uint256",
          "name": "_productId",
          "type": "uint256"
        }
      ],
      "name": "gettimeleft",
      "outputs": [
        {
          "internalType": "int256",
          "name": "",
          "type": "int256"
        }
      ],
      "stateMutability": "view",
      "type": "function",
      "constant": true
    },
    {
      "inputs": [],
      "name": "getcurrentime",
      "outputs": [
        {
          "internalType": "uint256",
          "name": "",
          "type": "uint256"
        }
      ],
      "stateMutability": "view",
      "type": "function",
      "constant": true
    },
    {
      "inputs": [
        {
          "internalType": "uint256",
          "name": "_productId",
          "type": "uint256"
        },
        {
          "internalType": "uint256",
          "name": "_price",
          "type": "uint256"
        }
      ],
      "name": "bid",
      "outputs": [],
      "stateMutability": "nonpayable",
      "type": "function"
    },
    {
      "inputs": [
        {
          "internalType": "uint256",
          "name": "_productId",
          "type": "uint256"
        }
      ],
      "name": "highestbid",
      "outputs": [
        {
          "internalType": "address",
          "name": "",
          "type": "address"
        }
      ],
      "stateMutability": "view",
      "type": "function",
      "constant": true
    },
    {
      "inputs": [
        {
          "internalType": "uint256",
          "name": "_productId",
          "type": "uint256"
        }
      ],
      "name": "highestbidfinal",
      "outputs": [
        {
          "internalType": "address",
          "name": "",
          "type": "address"
        }
      ],
      "stateMutability": "view",
      "type": "function",
      "constant": true
    },
    {
      "inputs": [
        {
          "internalType": "uint256",
          "name": "_productId",
          "type": "uint256"
        }
      ],
      "name": "initiatedelivery",
      "outputs": [],
      "stateMutability": "payable",
      "type": "function",
      "payable": true
    },
    {
      "inputs": [],
      "name": "balanceOf",
      "outputs": [
        {
          "internalType": "uint256",
          "name": "",
          "type": "uint256"
        }
      ],
      "stateMutability": "view",
      "type": "function",
      "constant": true
    },
    {
      "inputs": [
        {
          "internalType": "uint256",
          "name": "_productId",
          "type": "uint256"
        }
      ],
      "name": "deliveredproduct",
      "outputs": [],
      "stateMutability": "nonpayable",
      "type": "function"
    }
  ],
  "bytecode": "0x608060405260006002553480156200001657600080fd5b50604051620023263803806200232683398181016040528101906200003c919062000130565b81600460006101000a81548173ffffffffffffffffffffffffffffffffffffffff021916908373ffffffffffffffffffffffffffffffffffffffff16021790555080600160006101000a81548173ffffffffffffffffffffffffffffffffffffffff021916908373ffffffffffffffffffffffffffffffffffffffff160217905550505062000177565b600080fd5b600073ffffffffffffffffffffffffffffffffffffffff82169050919050565b6000620000f882620000cb565b9050919050565b6200010a81620000eb565b81146200011657600080fd5b50565b6000815190506200012a81620000ff565b92915050565b600080604083850312156200014a5762000149620000c6565b5b60006200015a8582860162000119565b92505060206200016d8582860162000119565b9150509250929050565b61219f80620001876000396000f3fe6080604052600436106100ec5760003560e01c806383197ef01161008a578063dc611e5411610059578063dc611e541461033e578063e6207d4614610367578063e6cf134614610383578063f5ff5c76146103c9576100ed565b806383197ef014610270578063bb4e2fa114610287578063bef4626f146102c4578063c9196b4114610301576100ed565b8063481c6a75116100c6578063481c6a75146101c6578063598647f8146101f15780635d97cdf31461021a578063722713f714610245576100ed565b806306661abd146101355780632c3ffe071461016057806339deafb11461019d576100ed565b5b3373ffffffffffffffffffffffffffffffffffffffff166108fc349081150290604051600060405180830381858888f19350505050158015610133573d6000803e3d6000fd5b005b34801561014157600080fd5b5061014a6103f4565b6040516101579190611345565b60405180910390f35b34801561016c57600080fd5b50610187600480360381019061018291906113a0565b6103fa565b60405161019491906113e6565b60405180910390f35b3480156101a957600080fd5b506101c460048036038101906101bf91906113a0565b610439565b005b3480156101d257600080fd5b506101db610665565b6040516101e89190611442565b60405180910390f35b3480156101fd57600080fd5b506102186004803603810190610213919061145d565b61068b565b005b34801561022657600080fd5b5061022f61098b565b60405161023c9190611345565b60405180910390f35b34801561025157600080fd5b5061025a610993565b6040516102679190611345565b60405180910390f35b34801561027c57600080fd5b5061028561099b565b005b34801561029357600080fd5b506102ae60048036038101906102a991906113a0565b610a96565b6040516102bb91906114be565b60405180910390f35b3480156102d057600080fd5b506102eb60048036038101906102e691906113a0565b610ae4565b6040516102f891906114be565b60405180910390f35b34801561030d57600080fd5b5061032860048036038101906103239190611505565b610b83565b6040516103359190611345565b60405180910390f35b34801561034a57600080fd5b506103656004803603810190610360919061168b565b610ba8565b005b610381600480360381019061037c91906113a0565b610e35565b005b34801561038f57600080fd5b506103aa60048036038101906103a591906113a0565b61108b565b6040516103c09a9998979695949392919061178a565b60405180910390f35b3480156103d557600080fd5b506103de6111de565b6040516103eb91906114be565b60405180910390f35b60025481565b600080600083815481106104115761041061182d565b5b90600052602060002090600802016006015490504281610431919061188b565b915050919050565b60011515600082815481106104515761045061182d565b5b906000526020600020906008020160070160009054906101000a900460ff161515146104b2576040517f08c379a00000000000000000000000000000000000000000000000000000000081526004016104a990611991565b60405180910390fd5b600160009054906101000a900473ffffffffffffffffffffffffffffffffffffffff1673ffffffffffffffffffffffffffffffffffffffff163373ffffffffffffffffffffffffffffffffffffffff1614610542576040517f08c379a000000000000000000000000000000000000000000000000000000000815260040161053990611a23565b60405180910390fd5b600081815481106105565761055561182d565b5b906000526020600020906008020160020160009054906101000a900473ffffffffffffffffffffffffffffffffffffffff1673ffffffffffffffffffffffffffffffffffffffff166108fc6003600084815260200190815260200160002060008085815481106105c9576105c861182d565b5b906000526020600020906008020160030160009054906101000a900473ffffffffffffffffffffffffffffffffffffffff1673ffffffffffffffffffffffffffffffffffffffff1673ffffffffffffffffffffffffffffffffffffffff168152602001908152602001600020549081150290604051600060405180830381858888f19350505050158015610661573d6000803e3d6000fd5b5050565b600460009054906101000a900473ffffffffffffffffffffffffffffffffffffffff1681565b816000610697826103fa565b9050600081136106dc576040517f08c379a00000000000000000000000000000000000000000000000000000000081526004016106d390611ab5565b60405180910390fd5b600084815481106106f0576106ef61182d565b5b906000526020600020906008020160020160009054906101000a900473ffffffffffffffffffffffffffffffffffffffff1673ffffffffffffffffffffffffffffffffffffffff163373ffffffffffffffffffffffffffffffffffffffff160361078f576040517f08c379a000000000000000000000000000000000000000000000000000000000815260040161078690611b47565b60405180910390fd5b600084815481106107a3576107a261182d565b5b9060005260206000209060080201600001548310156107f7576040517f08c379a00000000000000000000000000000000000000000000000000000000081526004016107ee90611bd9565b60405180910390fd5b826003600086815260200190815260200160002060008087815481106108205761081f61182d565b5b906000526020600020906008020160030160009054906101000a900473ffffffffffffffffffffffffffffffffffffffff1673ffffffffffffffffffffffffffffffffffffffff1673ffffffffffffffffffffffffffffffffffffffff16815260200190815260200160002054116108f75733600085815481106108a7576108a661182d565b5b906000526020600020906008020160030160006101000a81548173ffffffffffffffffffffffffffffffffffffffff021916908373ffffffffffffffffffffffffffffffffffffffff1602179055505b826003600086815260200190815260200160002060003373ffffffffffffffffffffffffffffffffffffffff1673ffffffffffffffffffffffffffffffffffffffff168152602001908152602001600020819055507fda1b31e90c4460ec41247fef016be9d2b045449deaf278a92b5190c77b539d4f843360405161097d929190611bf9565b60405180910390a150505050565b600042905090565b600047905090565b600460009054906101000a900473ffffffffffffffffffffffffffffffffffffffff1673ffffffffffffffffffffffffffffffffffffffff163373ffffffffffffffffffffffffffffffffffffffff1614610a2b576040517f08c379a0000000000000000000000000000000000000000000000000000000008152600401610a2290611c94565b60405180910390fd5b600460009054906101000a900473ffffffffffffffffffffffffffffffffffffffff1673ffffffffffffffffffffffffffffffffffffffff166108fc479081150290604051600060405180830381858888f19350505050158015610a93573d6000803e3d6000fd5b50565b6000808281548110610aab57610aaa61182d565b5b906000526020600020906008020160030160009054906101000a900473ffffffffffffffffffffffffffffffffffffffff169050919050565b600080610af0836103fa565b905060008112610b35576040517f08c379a0000000000000000000000000000000000000000000000000000000008152600401610b2c90611d72565b60405180910390fd5b60008381548110610b4957610b4861182d565b5b906000526020600020906008020160030160009054906101000a900473ffffffffffffffffffffffffffffffffffffffff16915050919050565b6003602052816000526040600020602052806000526040600020600091509150505481565b60008211610beb576040517f08c379a0000000000000000000000000000000000000000000000000000000008152600401610be290611e04565b60405180910390fd5b610bf3611204565b8281600001818152505081816020018190525033816040019073ffffffffffffffffffffffffffffffffffffffff16908173ffffffffffffffffffffffffffffffffffffffff16815250506002548160a001818152505060026000815480929190610c5d90611e24565b919050555042816080018181525050600a42610c799190611e6c565b8160c00181815250506000819080600181540180825580915050600190039060005260206000209060080201600090919091909150600082015181600001556020820151816001019080519060200190610cd4929190611289565b5060408201518160020160006101000a81548173ffffffffffffffffffffffffffffffffffffffff021916908373ffffffffffffffffffffffffffffffffffffffff16021790555060608201518160030160006101000a81548173ffffffffffffffffffffffffffffffffffffffff021916908373ffffffffffffffffffffffffffffffffffffffff1602179055506080820151816004015560a0820151816005015560c0820151816006015560e08201518160070160006101000a81548160ff0219169083151502179055506101008201518160070160016101000a81548160ff0219169083151502179055506101208201518160070160026101000a81548160ff02191690831515021790555050507fba444cca41e6d936970472441041be1986d1c34d4b245cad004c7a8562b0daa86001600254610e159190611ec2565b848433604051610e289493929190611ef6565b60405180910390a1505050565b6000610e40826103fa565b905060008112610e85576040517f08c379a0000000000000000000000000000000000000000000000000000000008152600401610e7c90611f8e565b60405180910390fd5b60008281548110610e9957610e9861182d565b5b906000526020600020906008020160030160009054906101000a900473ffffffffffffffffffffffffffffffffffffffff1673ffffffffffffffffffffffffffffffffffffffff163373ffffffffffffffffffffffffffffffffffffffff1614610f38576040517f08c379a0000000000000000000000000000000000000000000000000000000008152600401610f2f90612020565b60405180910390fd5b600360008381526020019081526020016000206000808481548110610f6057610f5f61182d565b5b906000526020600020906008020160030160009054906101000a900473ffffffffffffffffffffffffffffffffffffffff1673ffffffffffffffffffffffffffffffffffffffff1673ffffffffffffffffffffffffffffffffffffffff16815260200190815260200160002054341461100e576040517f08c379a0000000000000000000000000000000000000000000000000000000008152600401611005906120b2565b60405180910390fd5b6001600083815481106110245761102361182d565b5b906000526020600020906008020160070160006101000a81548160ff0219169083151502179055507f44307ef36adc47d23a9fc4868e6d52e97c645f91a37d7100c22205be83d8486382343360405161107f939291906120d2565b60405180910390a15050565b6000818154811061109b57600080fd5b90600052602060002090600802016000915090508060000154908060010180546110c490612138565b80601f01602080910402602001604051908101604052809291908181526020018280546110f090612138565b801561113d5780601f106111125761010080835404028352916020019161113d565b820191906000526020600020905b81548152906001019060200180831161112057829003601f168201915b5050505050908060020160009054906101000a900473ffffffffffffffffffffffffffffffffffffffff16908060030160009054906101000a900473ffffffffffffffffffffffffffffffffffffffff16908060040154908060050154908060060154908060070160009054906101000a900460ff16908060070160019054906101000a900460ff16908060070160029054906101000a900460ff1690508a565b600160009054906101000a900473ffffffffffffffffffffffffffffffffffffffff1681565b6040518061014001604052806000815260200160608152602001600073ffffffffffffffffffffffffffffffffffffffff168152602001600073ffffffffffffffffffffffffffffffffffffffff1681526020016000815260200160008152602001600081526020016000151581526020016000151581526020016000151581525090565b82805461129590612138565b90600052602060002090601f0160209004810192826112b757600085556112fe565b82601f106112d057805160ff19168380011785556112fe565b828001600101855582156112fe579182015b828111156112fd5782518255916020019190600101906112e2565b5b50905061130b919061130f565b5090565b5b80821115611328576000816000905550600101611310565b5090565b6000819050919050565b61133f8161132c565b82525050565b600060208201905061135a6000830184611336565b92915050565b6000604051905090565b600080fd5b600080fd5b61137d8161132c565b811461138857600080fd5b50565b60008135905061139a81611374565b92915050565b6000602082840312156113b6576113b561136a565b5b60006113c48482850161138b565b91505092915050565b6000819050919050565b6113e0816113cd565b82525050565b60006020820190506113fb60008301846113d7565b92915050565b600073ffffffffffffffffffffffffffffffffffffffff82169050919050565b600061142c82611401565b9050919050565b61143c81611421565b82525050565b60006020820190506114576000830184611433565b92915050565b600080604083850312156114745761147361136a565b5b60006114828582860161138b565b92505060206114938582860161138b565b9150509250929050565b60006114a882611401565b9050919050565b6114b88161149d565b82525050565b60006020820190506114d360008301846114af565b92915050565b6114e28161149d565b81146114ed57600080fd5b50565b6000813590506114ff816114d9565b92915050565b6000806040838503121561151c5761151b61136a565b5b600061152a8582860161138b565b925050602061153b858286016114f0565b9150509250929050565b600080fd5b600080fd5b6000601f19601f8301169050919050565b7f4e487b7100000000000000000000000000000000000000000000000000000000600052604160045260246000fd5b6115988261154f565b810181811067ffffffffffffffff821117156115b7576115b6611560565b5b80604052505050565b60006115ca611360565b90506115d6828261158f565b919050565b600067ffffffffffffffff8211156115f6576115f5611560565b5b6115ff8261154f565b9050602081019050919050565b82818337600083830152505050565b600061162e611629846115db565b6115c0565b90508281526020810184848401111561164a5761164961154a565b5b61165584828561160c565b509392505050565b600082601f83011261167257611671611545565b5b813561168284826020860161161b565b91505092915050565b600080604083850312156116a2576116a161136a565b5b60006116b08582860161138b565b925050602083013567ffffffffffffffff8111156116d1576116d061136f565b5b6116dd8582860161165d565b9150509250929050565b600081519050919050565b600082825260208201905092915050565b60005b83811015611721578082015181840152602081019050611706565b83811115611730576000848401525b50505050565b6000611741826116e7565b61174b81856116f2565b935061175b818560208601611703565b6117648161154f565b840191505092915050565b60008115159050919050565b6117848161176f565b82525050565b6000610140820190506117a0600083018d611336565b81810360208301526117b2818c611736565b90506117c1604083018b611433565b6117ce606083018a611433565b6117db60808301896113d7565b6117e860a0830188611336565b6117f560c08301876113d7565b61180260e083018661177b565b61181061010083018561177b565b61181e61012083018461177b565b9b9a5050505050505050505050565b7f4e487b7100000000000000000000000000000000000000000000000000000000600052603260045260246000fd5b7f4e487b7100000000000000000000000000000000000000000000000000000000600052601160045260246000fd5b6000611896826113cd565b91506118a1836113cd565b9250827f8000000000000000000000000000000000000000000000000000000000000000018212600084121516156118dc576118db61185c565b5b827f7fffffffffffffffffffffffffffffffffffffffffffffffffffffffffffffff0182136000841216156119145761191361185c565b5b828203905092915050565b7f5468652070726f64756374206973206e6f7420796574206f757420666f72206460008201527f656c697665727900000000000000000000000000000000000000000000000000602082015250565b600061197b6027836116f2565b91506119868261191f565b604082019050919050565b600060208201905081810360008301526119aa8161196e565b9050919050565b7f4f6e6c79207468652064656c6976657279206167656e742063616e2063616c6c60008201527f20746869732066756e6374696f6e000000000000000000000000000000000000602082015250565b6000611a0d602e836116f2565b9150611a18826119b1565b604082019050919050565b60006020820190508181036000830152611a3c81611a00565b9050919050565b7f5468652074696d6520666f722062696464696e67206f6e20746869732070726f60008201527f64756374206973206e6f77206f76657200000000000000000000000000000000602082015250565b6000611a9f6030836116f2565b9150611aaa82611a43565b604082019050919050565b60006020820190508181036000830152611ace81611a92565b9050919050565b7f546865206269646465722063616e6e6f74206265207468652073656c6c65722060008201527f6f66207468652070726f64756374000000000000000000000000000000000000602082015250565b6000611b31602e836116f2565b9150611b3c82611ad5565b604082019050919050565b60006020820190508181036000830152611b6081611b24565b9050919050565b7f596f752063616e6e6f742062696420666f72206120707269636520746861742060008201527f6973206c6f776572207468616e20746865206c69737465642070726963650000602082015250565b6000611bc3603e836116f2565b9150611bce82611b67565b604082019050919050565b60006020820190508181036000830152611bf281611bb6565b9050919050565b6000604082019050611c0e6000830185611336565b611c1b6020830184611433565b9392505050565b7f4f6e6c7920746865206d616e616765722063616e2064657374726f792074686560008201527f20736d61727420636f6e74726163740000000000000000000000000000000000602082015250565b6000611c7e602f836116f2565b9150611c8982611c22565b604082019050919050565b60006020820190508181036000830152611cad81611c71565b9050919050565b7f5468652074696d6520666f722062696464696e67206f6e20746869732070726f60008201527f64756374206973206e6f7420796574206f7665722068656e636520746865206860208201527f6967686573742062696464657220776f756c646e2774206265206465636c617260408201527f6564000000000000000000000000000000000000000000000000000000000000606082015250565b6000611d5c6062836116f2565b9150611d6782611cb4565b608082019050919050565b60006020820190508181036000830152611d8b81611d4f565b9050919050565b7f546865207072696365206f66207468652070726f647563742063616e6e6f742060008201527f6265206c657373207468616e206f7220657175616c20746f2030000000000000602082015250565b6000611dee603a836116f2565b9150611df982611d92565b604082019050919050565b60006020820190508181036000830152611e1d81611de1565b9050919050565b6000611e2f8261132c565b91507fffffffffffffffffffffffffffffffffffffffffffffffffffffffffffffffff8203611e6157611e6061185c565b5b600182019050919050565b6000611e778261132c565b9150611e828361132c565b9250827fffffffffffffffffffffffffffffffffffffffffffffffffffffffffffffffff03821115611eb757611eb661185c565b5b828201905092915050565b6000611ecd8261132c565b9150611ed88361132c565b925082821015611eeb57611eea61185c565b5b828203905092915050565b6000608082019050611f0b6000830187611336565b611f186020830186611336565b8181036040830152611f2a8185611736565b9050611f396060830184611433565b95945050505050565b7f5468652062696464696e6720706572696f64206973206e6f74206f7665720000600082015250565b6000611f78601e836116f2565b9150611f8382611f42565b602082019050919050565b60006020820190508181036000830152611fa781611f6b565b9050919050565b7f4f6e6c79207468652068696768657374206269646465722063616e20696e697460008201527f6174652064656c69766572790000000000000000000000000000000000000000602082015250565b600061200a602c836116f2565b915061201582611fae565b604082019050919050565b6000602082019050818103600083015261203981611ffd565b9050919050565b7f546865206574686572732073656e74206d75737420626520657175616c20746f60008201527f207468652062696420616d6f756e740000000000000000000000000000000000602082015250565b600061209c602f836116f2565b91506120a782612040565b604082019050919050565b600060208201905081810360008301526120cb8161208f565b9050919050565b60006060820190506120e76000830186611336565b6120f46020830185611336565b61210160408301846114af565b949350505050565b7f4e487b7100000000000000000000000000000000000000000000000000000000600052602260045260246000fd5b6000600282049050600182168061215057607f821691505b60208210810361216357612162612109565b5b5091905056fea26469706673582212204e11bff7224dcf66ff22f95e49e96233513547e44f9b54ea57f94eb66b93c39464736f6c634300080e0033",
  "immutableReferences": {},
  "source": "// SPDX-License-Identifier: MIT\npragma solidity >=0.4.22 <0.9.0;\n\ncontract Marketplace {\n\n  //Firstly we are going to have a structure for the products that the sellers sell\n  struct product{\n    //Now the product should have the following things\n    uint price;\n    string description;\n    address payable seller;\n    address payable highestbidder;\n    int startdate;\n    uint productId;\n    int enddate;\n    bool bidover;\n    bool delivered;\n    bool sold;\n  }\n\n  //This is the array that will store all the products that are registered by the seller\n  product[] public registered;\n\n  //This is the address of the delivery agency which is delivering the product\n  address public agent;\n\n  //Initally as we have no products available with us the productId will start from 0 and will keep on increasing as more products are\n  //registered\n  uint public count=0;\n\n  //Here we are going to have a mapping which maps the productid with the number of bidders for the product\n  mapping(uint=>mapping(address=>uint)) public totalbidders;\n\n  //This address is the manager of the smart contract\n  address payable public  manager;\n\n  constructor(address sender,address _agent)\n  {\n    manager=payable(sender);\n    agent=_agent;\n  }\n\n  //These are some of the events that are emitted once the function is successfully executed\n  event productregistered(uint productId,uint price,string description,address payable seller);\n  event bidmade(uint productId,address payable buyer);\n  event outfordelivery(uint productId,uint finalprice,address buyer);\n  event delivered(uint productId,address buyer,address seller);\n\n  //In case some hacker got into the smart contract and the contract got compromised then in that case all the ethers from the contract\n  //will be sent back again to the manager\n  modifier manageronly{\n    require(msg.sender==manager,\"Only the manager can destroy the smart contract\");\n    _;\n  }\n  \n  function destroy() public manageronly{\n    manager.transfer(address(this).balance);\n  }\n\n  //Now we are creating a function where the seller registers their respective products in the marketplace\n  function registerproduct(uint _price,string memory _description) public{\n    //Here we are going to have a require function which checks whether the price that the user entered in ethers is greater than 0\n    require(_price>0,\"The price of the product cannot be less than or equal to 0\");\n    product memory temp;\n    temp.price=_price;\n    temp.description=_description;\n    temp.seller=payable(msg.sender);\n    temp.productId=count;\n    count++;\n\n    //This means that the start time is the time when the product is registered\n    //And the end time is the start time + some amount of time where bidding is allowed\n    temp.startdate=int(block.timestamp);\n    temp.enddate=int(block.timestamp+10);\n    registered.push(temp);\n\n    //Hence this means that the product is now registered and thus the event can be emitted\n    emit productregistered(count-1, _price, _description, payable(msg.sender));\n  }\n\n  //Now this is the function which checks whether the time for the bidding of the  given product is over or not\n  //Hence this function returns the endtime - the current time\n  function gettimeleft(uint _productId) public view returns(int)\n  {\n    int time=registered[_productId].enddate;\n    return time-int(block.timestamp);\n  }\n\n  //This function returns the current time\n  function getcurrentime() public view returns(uint)\n  {\n    return block.timestamp;\n  }\n\n  modifier bidpermitted(uint _productId){\n    int timeleft=gettimeleft(_productId);\n    if(timeleft>0)\n    {\n    }\n    else{\n      revert(\"The time for bidding on this product is now over\");\n    }\n    _;\n  }\n\n  //Now this is the function where users bid for different products that are registered by the buyers\n  function bid(uint _productId,uint _price) public bidpermitted(_productId){\n    //The first requirement is that the buyer cannot be the seller of the product\n    require(msg.sender!=registered[_productId].seller,\"The bidder cannot be the seller of the product\");\n\n    //The second requirement is that the price that the bidder puts should be atleast greater than the listing price\n    require(_price>=registered[_productId].price,\"You cannot bid for a price that is lower than the listed price\");\n\n    //Now after passing all these tests it is time to bid for the product\n    if(totalbidders[_productId][registered[_productId].highestbidder]<=_price)\n    {\n      registered[_productId].highestbidder=payable(msg.sender);\n    }\n    totalbidders[_productId][msg.sender]=_price;\n\n    //This means that the bid has now been made\n    //The user doesn't know whether he/she has won the bid(they kind of know because the bidder can see the highest bid)\n\n    emit bidmade(_productId,payable(msg.sender));\n  }\n\n\n  //This is the function which returns the highest bidder for the given product\n  function highestbid(uint _productId) public view returns(address)\n  {\n    return registered[_productId].highestbidder;\n  }\n\n  //This is the function where we return the highest bidder of the product once the bid time is over\n  function highestbidfinal(uint _productId) public view returns(address)\n  {\n    int timeleft=gettimeleft(_productId);\n    if(timeleft<0)\n    {\n    }\n    else{\n      revert(\"The time for bidding on this product is not yet over hence the highest bidder wouldn't be declared\");\n    }\n    //This function only returns the highest bidder of the product once the bid time has been over\n    return registered[_productId].highestbidder;\n  }\n\n  //Hence now all the bids have been made and the highest bidder is assigned to the product once the time for the bidding gets over\n  //Now it is the time for the highest bidder to pay the amount to the contract\n  //This paid amount will remain with the contract till the time the product is actually delievered\n\n\n  //Only the buyer of the product can initate the delivery\n  function initiatedelivery(uint _productId) public payable{\n\n    //Firstly we need to check whether the bidding period is over or not\n    int timeleft=gettimeleft(_productId);\n    if(timeleft>=0)\n    {\n      revert(\"The bidding period is not over\");\n    }\n    //We need to check whether this function is called by the buyer of the smart contract or not\n    require(msg.sender==registered[_productId].highestbidder,\"Only the highest bidder can initate delivery\");\n    \n    //Also we are checking whether the ethers sent are equal to the promised amount by the bidder\n    require(msg.value==totalbidders[_productId][registered[_productId].highestbidder],\"The ethers sent must be equal to the bid amount\");\n\n    registered[_productId].bidover=true;\n    emit outfordelivery(_productId,msg.value,msg.sender);\n  }\n\n //This function returns the balance of the smart contract\n  function balanceOf() public view returns(uint)\n  {\n    return address(this).balance;\n  }\n\n  //Now the highest bidder has called the initiate delivery function \n  //Hence the delivery company delivers the product\n  //This function is called by the delivery agent to confirm that the product has been delivered\n  function deliveredproduct(uint _productId) external\n  {\n    require(registered[_productId].bidover==true,\"The product is not yet out for delivery\");\n    require(msg.sender==agent,\"Only the delivery agent can call this function\");\n    registered[_productId].seller.transfer(totalbidders[_productId][registered[_productId].highestbidder]);\n  }\n\n  //This is the fallback function in case no function was called of the smart contract\n  //The fallback function transfers the ethers back to the address that called the function\n  fallback() external payable{\n    payable(msg.sender).transfer(msg.value);\n  }\n\n}\n",
  "sourcePath": "C:\\Users\\Bhaskar\\Desktop\\web 3.0\\truffle\\marketplace_project\\truffle\\contracts\\Marketplace.sol",
  "compiler": {
    "name": "solc",
    "version": "0.8.14+commit.80d49f37.Emscripten.clang"
  },
  "schemaVersion": "3.4.7",
  "updatedAt": "2022-07-04T08:31:16.138Z",
  "networkType": "ethereum",
  "devdoc": {
    "kind": "dev",
    "methods": {},
    "version": 1
  },
  "userdoc": {
    "kind": "user",
    "methods": {},
    "version": 1
  }
}